:020000040800F2
:10000000300C002045010008DB1C00088F17000899
:10001000D91C000851060008592200080000000001
:10002000000000000000000000000000AF1E0008FB
:100030005306000800000000AD1E0008B11E0008B5
:100040005F0100085F0100085F0100085F01000810
:100050005F0100085F0100085F0100085F01000800
:100060005F0100085F0100085F0100085F010008F0
:100070005F0100085F0100085F0100085F010008E0
:100080005F0100085F0100085F0100085F010008D0
:100090005F0100085F0100085F0100085F010008C0
:1000A0005F0100085F0100085F0100085F010008B0
:1000B0005F0100085F0100085F0100085F010008A0
:1000C0005F0100085F0100085F0100085F01000890
:1000D0005F0100085F0100085F0100085F01000880
:1000E0005F0100085F0100085F0100085F01000870
:1000F0005F0100085F0100085F0100085F01000860
:100100005F0100085F010008051F00085F0100088B
:100110005F0100085F0100085F0100085F0100083F
:100120005F0100085F0100085F0100085F0100082F
:10013000DFF80CD000F03CFA00480047F553000807
:10014000300C00200648804706480047FEE7FEE7DF
:10015000FEE7FEE7FEE7FEE7FEE7FEE7FEE7FEE777
:10016000031F000831010008202A04DB203A21FA8D
:1001700002F00021704721FA02F3D040C2F12002C0
:10018000914008431946704740EA01039B0703D09A
:1001900009E008C9121F08C0042AFAD203E011F8C6
:1001A000013B00F8013B521EF9D27047D2B201E088
:1001B00000F8012B491EFBD270470022F6E710B56C
:1001C00013460A4604461946FFF7F0FF204610BDC5
:1001D000034611F8012B00F8012B002AF9D118462B
:1001E00070472DE9FE4F81EA030404F0004421F03A
:1001F000004100944FF0000B23F0004350EA01044B
:100200005ED052EA03045BD0C3F30A54C1F30A552B
:100210002C44A4F2F3340194A0FB0254C1F3130163
:1002200041F48011C3F3130343F4801301FB024430
:1002300000FB034E840A970A44EA815447EA835735
:10024000A4FB076802958D0A05FB07854FEA932CEE
:1002500004FB0C542705029D4FEA065847EA16375F
:10026000B5EB08056EEB070C870E920E47EA811777
:1002700042EA8312A7FB0201B6EB0B0164EB000418
:100280002B0D43EA0C335E1844EB1C50DA46514602
:10029000E7FB0201C5F313044FEA0B3343EA14539F
:1002A0004FEA0432019C43EA0603A4F10C040294D1
:1002B000009CCDE900B400F0DBF803B0BDE8F08F9E
:1002C00000200146F9E72DE9F04D81EA030404F02E
:1002D000004B21F0004514464FF0000A23F0004186
:1002E00050EA050220D054EA01021DD0C5F30A5796
:1002F0000246C5F31303C1F31300C1F30A5640F4D9
:10030000801543F48013A7EB0608101BD64608F2AD
:10031000FD3873EB050002D308F1010801E09218E3
:100320005B41B8F1000F03DA00200146BDE8F08D13
:1003300000204FF48011064684460EE0171B73EB35
:10034000050705D3121B63EB050306434CEA010CBA
:1003500049084FEA300092185B4150EA0107EDD19D
:1003600052EA030012D082EA040083EA050108433E
:1003700005D0101BAB4106D20122002306E000226B
:100380004FF0004302E06FF0010253101AEB060039
:100390004CEB085110EB0A0041EB0B01BDE8F04DAE
:1003A00000F057B80EB540F2334102910021CDE97B
:1003B00000110A460B4600F05BF803B000BDC1F324
:1003C0000A5210B5C1F3130140F2FF3341F480111A
:1003D0009A4201DA002010BD40F233439A42A2F261
:1003E000334203DC5242FFF7BFFE10BD904010BD08
:1003F0002DE9F05F0546002092469B46884606465A
:10040000814640241BE02846414647462246FFF7E6
:10041000ABFE53465A46C01A914110D311461846B6
:10042000224600F0D7F82D1A67EB01084F46224606
:100430000120002100F0CEF817EB00094E41201EEC
:10044000A4F10104DFDC484631462A464346BDE8B4
:10045000F09F10B5141E73F1000408DA401C41F13E
:10046000000192185B411A4301D120F0010010BD38
:100470002DE9F04D92469B4611B1B1FA81F202E0AE
:10048000B0FA80F22032904600F0A4F804460F46FD
:1004900040EA0A0041EA0B0153465A46084313D08A
:1004A000114653EA010019D0C8F140025046FFF747
:1004B0005BFE05460E4650465946424600F08AF815
:1004C000084305D0012004E020463946BDE8F08D00
:1004D0000020054346EAE0762C4337430A9863053B
:1004E000E40AA0EB08000022FD0A44EA47540A305F
:1004F00002D500200146E9E7010510196941DDE94F
:10050000084500196941BDE8F04DA2E72DE9F04D1D
:1005100000231A461B1A8A4103DB00200146BDE86E
:10052000F08DC1F30A52C1F3130141F480154FF06D
:10053000000BD10702D100186D41521E002704465E
:1005400040F2FF11384601EB620A3E468046024601
:1005500000204FF48011FFF707FEC2197141BB184C
:1005600046EB0100B4EB030C75EB000C04D3E41A6A
:1005700065EB000517460E46241908F101006D4190
:1005800080463428E3DDF91946EB0600091BA84133
:1005900003D24FF0FF32134601E0002213461BEB5B
:1005A000070046EB0A51BDE8F04DFFF752BF0000CF
:1005B000064C074D06E0E06840F0010394E80700B0
:1005C00098471034AC42F6D3FFF7B6FD685E0008DA
:1005D000885E0008202A04DB203A00FA02F100209D
:1005E00070479140C2F1200320FA03F31943904071
:1005F000704770B58D1810F8014B14F0030201D14B
:1006000010F8012B231106D110F8013B03E010F87C
:10061000016B01F8016B521EF9D1ABB110F8012B3F
:1006200004F00C048A1A0C2C03D0A2EB84129B1C3D
:1006300008E010F8014BA2EB0422F8E712F8014B96
:1006400001F8014B5B1EF9D5A942D4D3002070BD3F
:10065000FEE770477047000070B5044600F014F9DB
:100660000546601C02D004480078044400F00CF9F0
:10067000401BA042FAD370BD340300202DE9F84F8F
:10068000DFF8C891002409F1040A0AF1040B23469B
:100690000F270BF1040ED1E00125A54006EA050263
:1006A000AA4276D1DFF8A8C14E68A6EB0C086645D1
:1006B0002BD00DDC032E34D005DC36B3012E19D03F
:1006C000022E2FD11BE0112E16D0122E2AD119E0A6
:1006D000B8F5881F19D006DCB8F5803F15D0B8F5FD
:1006E000801F1FD111E0B8F5001F0ED0B8F5041F10
:1006F00018D10AE0CB6815E0CB681B1D12E0CB686F
:1007000008330FE0CB680C330CE08B682BB1012B66
:100710004FF0080303D0456104E0042302E00561C3
:1007200000E00023FF2A01D8064601E000F104069C
:100730004FEA840501D9A5F12005D6F8008007FA13
:1007400005FC28EA0C0803FA05F548EA0508C6F88E
:1007500000804D68ED0070D53E4DAE6946F0010653
:10076000AE61AD6924F0030605F0010500953A4D30
:1007700006EB050CDCF80850A607360F07FA06F85A
:1007800025EA0805DFF8D480404503D14FF0000882
:1007900025E052E0DFF8C880404502D14FF0010863
:1007A0001DE0DFF8C080404502D14FF0020816E09E
:1007B000DFF8B480404502D14FF003080FE0DFF8C6
:1007C000AC80404502D14FF0040808E0DFF8A0807B
:1007D000404502D14FF0050801E04FF0060808FA45
:1007E00006F848EA0508CCF808804D68D9F800609A
:1007F000ED034D4601D5164300E096432E604D684B
:10080000DAF80060AD03554601D5164300E0964383
:100810002E604D68DBF80060ED025D4601D51643A1
:1008200000E096432E604D68DEF80060AD0275462C
:1008300001D5164300E096432E60641C0A681646F4
:10084000E2407FF429AFBDE8F88F000000040140CA
:10085000000011100010024000000140000801409B
:10086000000C01400010014000140140001801403C
:10087000001C01408068084000D0012070470AB188
:10088000016170470904FBE7014880687047000078
:100890003403002002488168027811448160704767
:1008A00034030020074810B5016841F010010160D1
:1008B000032000F075F8002000F006F800F024F89E
:1008C000002010BD0020024070B50D4D04464FF4CD
:1008D0007A712878B1FBF0F00A490968B1FBF0F0B1
:1008E00000F0ECFA48B9102C07D200222146501E25
:1008F00000F036F800206C6070BD012070BD000073
:1009000034030020740000200C4808B5816941F0D0
:1009100001018161816901F001010091C16941F02A
:100920008051C161C06900F0805000900448416866
:1009300021F0E06141F00071416008BD001002400B
:1009400000000140002809DB00F01F020121914056
:100950004009800000F1E020C0F80011704700005D
:10096000F0B40E4B1B680C46C3F30223C3F107051A
:10097000042D00D90425191D072901D2002300E008
:10098000DB1E012606FA05F1491E214099409E40D2
:10099000761E16403143F0BC04F03AB90CED00E08D
:1009A000064900F0070208684FF6FF03184040EAC6
:1009B0000220034A10430860704700000CED00E07D
:1009C0000000FA052DE9F0470F46050061D0434EBF
:1009D000306800F00700B84209D2306820F0070004
:1009E00038433060306800F00700B84251D12868C1
:1009F0003B4C810712D5400703D5606840F4E060A6
:100A000060602878000703D5606840F4605060603B
:100A10006068A96820F0F000084360602878C0078B
:100A200028D06868012810D02168022810D08907D2
:100A300000292EDA616821F0030101436160FFF7AC
:100A400023FF804641F288390DE021688903EFE7F2
:100A50008901EDE7FFF718FFA0EB0801494502D92E
:100A60000320BDE8F0876068696800F00C00B0EB17
:100A7000810FEFD1306800F00700B8420BD9306821
:100A800020F0070038433060306800F00700B842BB
:100A900001D00120E5E72878400705D56068E968BE
:100AA00020F4E060084360602878000706D560689D
:100AB000296920F4605040EAC100606000F038F815
:100AC0006168084AC1F30311515CC84006490860D7
:100AD00006480068FFF7F8FE0020C2E70020024049
:100AE00000100240505E000874000020380300200F
:100AF0000448054900684968044AC1F30221515C71
:100B0000C84070477400002000100240605E00087A
:100B10000448054900684968044AC1F3C221515C90
:100B2000C84070477400002000100240605E00085A
:100B300012A185B00FC98DE80F0014A0144A0068F7
:100B400004905168134801F00C03042B10D0082BBB
:100B50000ED1C1F38343C9031DF803000AD55168C0
:100B600004AAC1F34041515C0A4A5043B0FBF1F082
:100B700005B0704708494843FAE70000020304053E
:100B8000060708090A0B0C0D0E0F101001020000D9
:100B90000010024000127A0000093D002DE9F84FD4
:100BA000040070D02078C04DC00749D06868C0F3F9
:100BB0008100012807D06868C0F38100022809D1AC
:100BC0006868C00306D52868800339D560680028A6
:100BD000E7D035E06068B0F5803F0BD010B1B0F5DC
:100BE000A02F11D0286820F480302860286820F4D5
:100BF000802002E0286840F480302860606890B16E
:100C0000FFF742FE06460AE0286840F4802028608C
:100C1000F0E700BFFFF738FE801B642873D8286810
:100C20008003F7D50CE0FFF72FFE064605E000BF76
:100C3000FFF72AFE801B6428F0D828688003F7D4C9
:100C400020789A4E80074FF001094FF0000839D5FF
:100C5000686810F00C0F07D06868C0F381000228A4
:100C600009D16868C00306D42868800714D52069B4
:100C7000012808D110E02069B0B1C6F80090FFF754
:100C800003FE074605E00AE1FFF7FEFDC01B022850
:100C9000C4D828688007F7D52868616920F0F80073
:100CA00040EAC10028600DE0C6F80080FFF7ECFDC7
:100CB000074604E0FFF7E8FDC01B022823D8286898
:100CC0008007F7D4207800072CD57948A169D9B1DD
:100CD000C0F80090FFF7D8FD074604E0FFF7D4FD09
:100CE000C01B02280FD8686A8007F7D571484FF4F7
:100CF000FA510068B0FBF1F0009000BF0098411E6F
:100D00000091FAD20EE080E0C0F80080FFF7BCFD51
:100D1000074604E0FFF7B8FDC01B022875D8686AD3
:100D20008007F7D42078400760D5E8690027C00025
:100D300008D4E86940F08050E861E869012700F0D4
:100D4000805000905C480168C90513D4016883464F
:100D500041F480710160FFF797FD824606E000BF15
:100D6000FFF792FDA0EB0A0064284ED8DBF80000E4
:100D7000C005F5D5E06801280AD008B1052813D0D0
:100D8000286A20F001002862286A20F0040002E0AE
:100D9000286A40F001002862E06841F2883B98B17F
:100DA000FFF772FD82460BE0286A40F004002862DB
:100DB000EEE700BFFFF768FDA0EB0A0159455AD8DE
:100DC000286A8007F6D50CE0FFF75EFD824605E055
:100DD000FFF75AFDA0EB0A0159454CD8286A800755
:100DE000F6D41FB1E86920F08050E861E06988B36B
:100DF0006968C1F38101022944D00228C6F86080E5
:100E000004D0FFF741FD044638E034E0FFF73CFD35
:100E1000074604E0FFF738FDC01B02282BD82868DE
:100E20008001F7D4206AB0F5803F05D16868A168D9
:100E300020F4003008436860D4E908010843696879
:100E400021F4741108436860C6F86090FFF71CFD38
:100E5000044606E025E000BFFFF716FD001B022850
:100E600009D828688001F7D51BE000BFFFF70CFD0B
:100E7000001B022802D90320BDE8F88F28688001F2
:100E8000F4D40EE00128F7D06868226A00F48031BB
:100E9000914204D1616A00F47010884201D00120AF
:100EA000EAE70020E8E700000010024000004242AC
:100EB00080044242740000200070004010B5401EC3
:100EC000B0F1807F01D3012010BD4FF0E0246061BC
:100ED0000F21601703F09CFE0020A0610720206115
:100EE000002010BD7047704770B590F83C20012A73
:100EF0002CD0012480F83C40022280F83D20036879
:100F00005A689D6822F070060A6832435A60104B96
:100F100002689A420ED00F4B9A420BD0B2F1804F2A
:100F200008D00D4B9A4205D00C4B9A4202D00C4B84
:100F30009A4204D1496825F080031943916080F8F2
:100F40003D40002180F83C10084670BD022070BD75
:100F5000002C014000340140000400400008004023
:100F6000000C004090F83D10012901D0012070478D
:100F7000022180F83D100168CA6842F00102CA608F
:100F800000680E4988420ED00D4988420BD0B0F15E
:100F9000804F08D00B49884205D00B49884202D0C7
:100FA0000A49884204D1816801F00701062903D06B
:100FB000016841F00101016000207047002C0140F0
:100FC000003401400004004000080040000C0040D4
:100FD00001680A6A41F211131A4207D10A6A9B108A
:100FE0001A4203D10A6822F001020A60012180F846
:100FF0003D1000207047704770B5044600680169D5
:101000004FF00005C943890715D4C168C943890752
:1010100011D4E91E016101202077206880698007D2
:10102000204602D0FFF7E7FF04E000F017F9204662
:1010300000F0E8F9257720680169C943490717D40A
:10104000C168C943490713D46FF00401016102204C
:1010500020772068806910F4407F204602D0FFF797
:10106000CAFF04E000F0FAF8204600F0CBF925773B
:1010700020680169C943090716D4C168C943090733
:1010800012D46FF008010161042020772068C06944
:101090008007204602D0FFF7AEFF04E000F0DEF844
:1010A000204600F0AFF9257720680169C943C906D9
:1010B00017D4C168C943C90613D46FF01001016188
:1010C000082020772068C06910F4407F204602D0B5
:1010D000FFF791FF04E000F0C1F8204600F092F91C
:1010E000257720680169C943C90708D1C168C94388
:1010F000C90704D1891E0161204600F0DFF920688C
:101100000169C943090609D4C168C943090605D460
:101110006FF0800101612046FFF7E4FE206801695D
:10112000C943490609D4C168C943490605D46FF0CB
:1011300040010161204600F067FA20680169C94357
:1011400089060BD4C168C943890607D46FF0200112
:1011500001612046BDE87040FFF7C5BE70BD0000CC
:1011600030B585B000210091019102910391026890
:101170003249032402253248B2F1804F24D0314B4A
:101180009A422DD18A6942F004028A618A6902F08A
:10119000040204928A6942F008028A618969039410
:1011A00001F008010491C021CDE900156946FFF75F
:1011B00065FA0120CDE9000523486946039400BF84
:1011C000FFF75CFA05B030BD8A6942F004028A611B
:1011D0008969CDE9004501F00401CDE903412AE028
:1011E0001A4B9A4218D1886940F0200088618869BA
:1011F000694600F0200004904FF47040CDE90005EE
:1012000003941348FFF73AFA1248416841F0E0614D
:1012100041F480514160D5E70F4B9A42D2D18A699F
:1012200042F004028A618969039401F00401049187
:101230000821CDE900156946C2E700000010024010
:101240000008014000040040000C0140000800407C
:101250000014014000000140000C0040704770B5D0
:10126000044690F83C000D4601280AD0012084F87D
:101270003C0042B1042A18D0082A2AD00C2A4DD1A9
:1012800039E0022070BD206800F096FE2068816978
:1012900041F0080181612068816921F004018161C8
:1012A000206881692A69114311E0206800F0B4FECA
:1012B0002068816941F4006181612068816921F4BD
:1012C00080618161206881692A6941EA0221816126
:1012D00024E0206800F0D6FE2068C16941F00801D2
:1012E000C1612068C16921F00401C1612068C16940
:1012F0002A69114311E0206800F0F8FE2068C169F6
:1013000041F40061C1612068C16921F48061C1615B
:101310002068C1692A6941EA0221C161002084F87C
:101320003C0070BD10B5040003D094F83D0010B12E
:1013300007E0012010BD002084F83C00204600F0AA
:101340001FF8022084F83D00211D206800F0E0FD18
:10135000012084F8460084F83E0084F83F0084F8B9
:10136000400084F8410084F8420084F8430084F887
:10137000440084F8450084F83D00002010BD0000C2
:1013800008B501681B48B1F1804F0BD01A4A914251
:1013900010D1C16941F00201C161C06900F00200D1
:1013A000009008BDC16941F00101C161C06900F050
:1013B0000100F5E7114A914207D1C16941F00401EA
:1013C000C161C06900F00400EAE70D4A9142E8D12A
:1013D000C16941F00801C161C069002200F0080044
:1013E000009011463220FFF7BBFABDE808403220DA
:1013F000FFF7A8BA001002400004004000080040B7
:10140000000C00407047000010B50446022249B1AC
:1014100004290ED0082913D094F84100012816D0D1
:10142000012010BD94F83E000128F9D184F83E2037
:101430000FE094F83F000128F2D184F83F2008E043
:1014400094F840000128EBD184F8402001E084F8B2
:1014500041200122206800F0A1FD13492068134AB1
:10146000884201D0904203D1436C43F4004343646B
:10147000206888420DD090420BD0B0F1804F08D048
:101480000B49884205D00B49884202D00A4988425C
:1014900004D1816801F00701062903D0016841F0F9
:1014A00001010160002010BD002C0140003401400A
:1014B0000004004000080040000C00402DE9F0410D
:1014C00000684D49884271D14C4C4B4A60684108D4
:1014D00034321160121D116047492C310860484EAA
:1014E0003078400703D4207820F00700207020785F
:1014F000434B10F007024FF0000709D03E49012688
:101500002031012A0ED0022A51D0032A71D136E0AF
:10151000DF603C481F61FFF75BFD307820F0010081
:10152000307066E00A6842F480520A60C0F3C0007E
:1015300000F0D8F9D868401CD8606169491C616125
:1015400065681A6906EB810102EB450292FBF1F630
:10155000AD1B92FBF1F601FB16211961A1688142D6
:1015600002D8E06860611CE02069A84241D39D6018
:1015700005461F61207820F00700C01C38E00A688B
:1015800042F480520A60C0F3C00000F0ABF9D868A2
:10159000401CD860A168256981422AD8E068606152
:1015A0009D68207820F00700801C21E022E00A6876
:1015B00042F480520A60C0F3C00000F093F9D8688A
:1015C000401CD8606069401C60616568196906EB61
:1015D000800201EB450191FBF2F6A5EB060591FBBC
:1015E000F2F602FB1611196103D4207820F00700EF
:1015F00020706560BDE8F081000C004054030020BD
:101600002400002044040020704770B5040004D07A
:1016100094F83900002510B106E0012070BD84F86F
:101620003850204600F022F8242084F83900206841
:10163000C16821F40051C160204600F07FFD2068A0
:10164000016921F4904101612068416921F02A017A
:1016500041612068C16841F40051C160E563202008
:1016600084F8390084F83A00002070BD30B585B0A8
:101670000024009401940294039400681449884261
:1016800024D11448816941F480418161816901F468
:1016900080410491816941F00401816180690E4DAE
:1016A00000F0040004904FF40070009002200190BC
:1016B0000320039069462846FEF7E0FF2815CDE990
:1016C0000004694628460294FEF7D8FF05B030BDF5
:1016D0000038014000100240000801402DE9F843A5
:1016E000044690F839001F4616460D4620284CD176
:1016F000C5B1BEB194F83800012846D0012084F865
:1017000038004FF00008C4F83C80212084F83900EC
:10171000FFF7BAF8A6848146E684A068B0F5805F3A
:1017200003D004E00120BDE8F883206928B12E46EB
:101730005FF0000584F838800EE00026FAE780218B
:10174000204600F057FDA0B9AEB116F8010B216894
:101750004860E08C401EE084E08C4B464FF0000275
:1017600000970028EBD14FF04001204600F042FDE9
:1017700030B10320D7E735F8020BC0F30800E6E7E5
:10178000202084F839000020CDE70220CBE7FEE7D7
:101790002DE9F0474C4C984605000E46494B207801
:1017A00017464FF480414FF4805A0AD540F00800A4
:1017B00020706D42002299461846FFF760F800221B
:1017C00008E020F008002070012299461846FFF733
:1017D00056F8012251464846FFF751F84FF0FF39BD
:1017E000012D24D0002D2CD04BF6BF71B1FBF8F0A9
:1017F00020613648B0FBF6F0FEF7D4FD04F086F920
:101800000022334BFEF7EDFC0022324BFEF75BFD6E
:10181000FEF7D5FD0246606006EBC6006421B0FB12
:10182000F1F108FB08F0B0FBF1F060B10CE0C4F896
:101830001490207820F00700801C20704FF47A70FC
:101840006060BDE8F087012005FB07F1F319B1FBEB
:10185000F3F101B90121814201D8481B03E0704333
:10186000B0FBF7F04042E06010B94846C4F80C9075
:101870002844A0602069824205D86060207820F06A
:101880000700C01C03E0207820F00700401C2070F7
:10189000002060611048017841F0010101700F499A
:1018A00005200860091D08600C49092008390860F6
:1018B0000B48FFF757FBBDE8F0470C210848FFF73E
:1018C000A3BD000000180140540300207CCD95000A
:1018D0000068BA400000594024000020340C004049
:1018E00044040020044A0128516802D0491C516078
:1018F0007047491EFBE70000240000202DE9F04F4F
:1019000085B0002653480096019602960396816999
:1019100041F080018161816901F080010491816958
:1019200041F004018161816901F004010491816940
:1019300041F008018161816901F008010491816928
:1019400041F040018161816901F0400104918169A8
:1019500041F020018161816901F0200104918169D8
:1019600041F010018161816901F0100104918169E8
:1019700041F4807181618069DFF8DCB000F480702F
:10198000049000220E215846FEF779FF4FF4F048EC
:10199000002241463148FEF772FF4FF4E059002221
:1019A00049462F48FEF76BFF00229F212D48FEF786
:1019B00066FF4FF47E4A002251462B48FEF75FFF38
:1019C000012228212948FEF75AFF0E200125022472
:1019D0000327CDE90005CDE9024769465846FEF7E1
:1019E0004DFE1020CDE90006694602945846FEF7E8
:1019F00045FECDF800800397CDE9015469461748AC
:101A0000FEF73CFECDF800900397CDE901546946FE
:101A10001348FEF733FE9F20CDE90005CDE90247CC
:101A200069461048FEF72AFECDF800A00397CDE9DD
:101A3000015469460C48FEF721FE2820CDE9000537
:101A4000CDE9024769460948FEF718FE05B0BDE832
:101A5000F08F000000100240001C014000180140FF
:101A6000001001400014014000200140000C014022
:101A700010B58AB0002407941C2168460894FEF72C
:101A80009CFB1B484FF0804101604721C0E90114D5
:101A900044F61F61C0E903148461FFF743FC08B1F9
:101AA000FEF7D8FD079407A911480894FFF71CFA20
:101AB00008B1FEF7CFFD602000904FF47A70CDE9B9
:101AC0000104002269460A480494FFF7C8FB08B1E4
:101AD000FEF7C0FD042269460548FFF7C0FB08B1C8
:101AE000FEF7B8FD0248FFF73BFB0AB010BD00004F
:101AF0006C03002010B58AB0002407941C216846AE
:101B00000894FEF75AFB21481F4901604721C0E9AC
:101B1000011444F61F61C0E903148461FFF702FC5D
:101B200008B1FEF797FD079407A918480894FFF736
:101B3000DBF908B1FEF78EFD602000904FF47A705B
:101B4000CDE901040022694610480494FFF787FBA1
:101B500008B1FEF77FFD042269460C48FFF77FFBC2
:101B600008B1FEF777FD40F2B630019008226946D1
:101B70000648FFF774FB08B1FEF76CFD0348FFF75A
:101B8000EFFA0AB010BD000000040040B4030020CA
:101B900030B589B0002407941C2168460894FEF7EC
:101BA0000CFB2248204941F2873502C0472132C050
:101BB00040F8104984611D48FFF7B4FB08B1FEF7F7
:101BC00049FD079407A919480894FFF78DF908B152
:101BD000FEF740FD60200090CDE9015400226946E7
:101BE00012480494FFF73BFB08B1FEF733FD0422D3
:101BF00069460E48FFF733FB08B1FEF72BFD0822BC
:101C000069460A48FFF72BFB08B1FEF723FD0C22BB
:101C100069460648FFF723FB08B1FEF71BFD0348A2
:101C2000FFF79EFA09B030BD00080040FC03002019
:101C300010B58AB0002407941C2168460894FEF76A
:101C4000BCFA1648144901604721C0E90114092172
:101C5000C0E903148461FFF765FB08B1FEF7FAFCE5
:101C6000079407A90D480894FFF73EF908B1FEF75D
:101C7000F1FC602000900520CDE901040C226946AA
:101C800006480494FFF7EBFA08B1FEF7E3FC0348BB
:101C9000FFF766FA0AB010BD000C004044040020B3
:101CA0000C4810B50A4901604FF4E1314160002150
:101CB00081600C22C160C0E904128161C161FFF73B
:101CC000A4FC002803D0BDE81040FEF7C3BC10BD43
:101CD000003801408C040020FEE770470149085C91
:101CE00070470000480300200020044902460A54BF
:101CF000401CC0B20928FAD37047000048030020F6
:101D0000F8B506460120ADF80000214C00216170B5
:101D1000ADF800001F4D4FF6FF772FE0BDF8000033
:101D2000304201D0012200E0002208212846FEF7BF
:101D3000A6FD012202212846FEF7A1FD052003F0A1
:101D40001DFA002202212846FEF799FD052003F026
:101D500015FA012202212846FEF791FD102128469E
:101D6000FEF788FD20B16078BDF800100843607070
:101D7000BDF8000007EA4000ADF80000BDF8000023
:101D8000FF28CBD9BDE8F840102003F0F7B90000D8
:101D900048030020001C014070B5FFF7A5FF00F0CC
:101DA0001FF80D480D4BB0F803100C481B1D418067
:101DB0000020012413F8105000F101006D1E04FAF8
:101DC00005F20A42C0B205D01028F3D30A20FEF76C
:101DD00043FC002070BD00004803002000000020EC
:101DE0002DE9FC4100208DF800000126ADF80460CB
:101DF0002B4C024604212046FEF741FD294D287850
:101E0000FFF77EFF6878FFF77BFF02208DF8000068
:101E1000254D4FF6FF7737E0ADF8046028E001224A
:101E200002212046FEF72BFD052003F0A7F9002232
:101E300002212046FEF723FD052003F09FF9012231
:101E400002212046FEF71BFD10212046FEF712FD61
:101E500040B19DF80000BDF80410285C08439DF8CF
:101E600000106854BDF8040007EA4000ADF8040013
:101E7000BDF80400FF28D2D9102003F07FF99DF8A7
:101E80000000401C8DF800009DF800000928C3D315
:101E900002B02046BDE8F04101220421FEF7EFBC6C
:101EA000001C0140000000204803002070477047DC
:101EB000FEF7F0BC30B58FB028216846FEF77DF9FB
:101EC00014210AA8FEF779F901210804CDE90010D0
:101ED0000024029402250491CDE907504FF4E0104C
:101EE00009906846FEF75AFE0F20CDE90A05680200
:101EF000CDE90C4002210AA80E94FEF763FD0FB055
:101F000030BD70470148FFF777B800004404002057
:101F1000F0B502681C4B1D4D1D4E1E4F1E4C4FF060
:101F2000804C984209D0A04207D0604505D0A84215
:101F300003D0B04201D0B84204D122F0700E4A68FA
:101F400042EA0E02984209D0A04207D0604505D06F
:101F5000A84203D0B04201D0B84203D122F4407568
:101F6000CA682A434D6922F080022A4302608A68C7
:101F7000C2620A688262984201D0A04201D1096916
:101F8000016301214161F0BD002C014000040040CB
:101F900000080040000C00400034014010B501F082
:101FA0001F030121046A99408C430462016A9A402C
:101FB0001143016210BD0000F0B5026A22F0010277
:101FC0000262036A42688469124E24F073050C6849
:101FD0002C4323F002058B682B430D4DA84201D002
:101FE000B04205D123F00807CB683B4323F004033C
:101FF000A84201D0B04205D14D6922F44072154388
:102000008A692A4342608461496841630362F0BD82
:10201000002C014000340140F0B5026A22F01002A9
:102020000262026A436884690D6824F4E64444EA63
:1020300005248D6822F0200242EA05120F4D104E51
:10204000A84201D0B04206D1CF6822F0800242EA15
:10205000071222F04002A84201D0B04207D14D69D8
:1020600023F4406343EA85038D6943EA85034360B3
:102070008461496881630262F0BD0000002C014068
:1020800000340140F0B5026A22F480720262026AF2
:102090004368C46922F4007224F073050C68124E80
:1020A0002C438D6842EA05220E4DA84201D0B04271
:1020B00006D1CF6822F4006242EA072222F480624D
:1020C000A84201D0B04207D14D6923F4405343EAFE
:1020D00005138D6943EA05134360C4614968C16310
:1020E0000262F0BD002C01400034014030B5026AAC
:1020F00022F480520262046A4268C3690D6823F4C4
:10210000E64343EA05238D6824F4005444EA053489
:10211000084DA84202D0084DA84204D14D6922F4CE
:10212000804242EA85124260C361496801640462E8
:1021300030BD0000002C01400034014070B5044661
:1021400000680169E26821F440511143016121698D
:10215000A0680843616908432168CA6841F20C63BA
:102160009A430243CA6020684169A26921F4407120
:10217000114341611E492068884202D1FEF7C8FC24
:1021800001E0FEF7B5FC00EBC00101EB0012606856
:1021900064218000B2FBF0F3B3FBF1F36FF018069B
:1021A0007343B2FBF0F5B2FBF0F605EB8305322387
:1021B00003EB0515B5FBF1F5B6FBF1F605F0F005FF
:1021C00005EB0615B2FBF0F6B2FBF0F0B0FBF1F058
:1021D0006FF01802504306EB800003EB0010B0FBD9
:1021E000F1F0216800F00F002844886070BD000005
:1021F000003801402DE9F041984617460E46044646
:10220000069D1DE0681C1BD02DB1FEF73DFBA0EB29
:102210000800A84214D92068C16821F4D071C160B7
:102220002068416921F001014161202084F83900D2
:1022300084F83A00002084F838000320BDE8F081DB
:102240002068006836EA000004D00020B842D9D0E7
:102250000020F3E70120F9E7FEE700007CB5044623
:10226000002094F8DA200D46012A03D0022A01D07A
:10227000032A14D101AB6A460121204600F099F9E6
:10228000009A4FF47F018A4202D8019A8A4206D905
:10229000002804D125B10F49204601F095FE7CBDF0
:1022A0000422FF21204600F034FE05460022702162
:1022B000204600F02EFE05430022FF21204600F0BC
:1022C00028FE054300228021204600F022FE2843FC
:1022D0007CBD00006B010020F8B5064600240122F9
:1022E0000B21304600F015FE074600220B21304638
:1022F00000F00FFE40EA07056A461321304600F061
:102300001CFB641C9DF800102843E4B2490704D06C
:10231000032C04D20028E2D0F8BD032CFCD36FF0CC
:102320000B00F8BDF0B591B004460123FE228921CF
:1023300000F0CEFD20B900228821204600F0E9FD02
:10234000002584F8F0504FF47A70A4F852014FF44D
:10235000C870A4F854015748C4F85801564825627B
:10236000C4F8D4006946204600F0AAF8060009D156
:102370008DF800508DF801504022694604F110009C
:10238000FDF702FF6420A4F834014FF46170A4F853
:1023900036014FF4FA70A4F838014FF42060A4F825
:1023A0003C01012784F850713A468021204600F014
:1023B000B0FD06430122FF21204600F0AAFD06439E
:1023C00000221146204600F0A4FD064310AA9121E8
:1023D000204600F0B2FA06439DF8400084F83A0126
:1023E00001220021204600F094FD06430022FF2137
:1023F000204600F08EFD064300228021204600F09A
:1024000088FD30430026002852D1B1B20122204677
:1024100000F076FB761C062EF5DB002848D1002262
:102420000221204600F06CFB002841D1002203214C
:10243000204600F065FB00283AD100220421204606
:1024400000F05EFB002833D100220521204600F079
:1024500057FB00282CD14FF490120021204600F0A9
:1024600090FB002824D14FF480420121204600F047
:1024700088FB00281CD14FF40C120221204600F0EA
:1024800080FB002814D100220321204600F079FBB4
:1024900000280DD1FF2084F830010246012120469A
:1024A00000F037FD84F83271002801D184F815510D
:1024B00011B0F0BD856B0100A470090000F05ABF97
:1024C00070B506460C46007C01F8080B304600F05B
:1024D00044F8002833D1207304F11001304600F095
:1024E000DDF900282BD104F11401304600F0E4F8A6
:1024F000002824D1002501E0002820D104EB85022A
:10250000A9B23046243200F07BF8002817D16219B6
:10251000A9B23046183200F066F86D1C062DEBDBD0
:1025200000280CD104F13C01304600F09CF9002851
:1025300005D1211D3046BDE8704000F0BBB870BD2C
:1025400010B50C460A46092100F0F7F9002803D11E
:10255000217801F00101217010BD3EB50C46054601
:1025600002AAF82100F0FFF900280ED16A460421E2
:10257000284600F0EDF9002807D1BDF8081029B170
:10258000009AB2FBF1F12160A9613EBD2168FBE731
:1025900038B50C466A46132100F0CFF99DF80010BB
:1025A00001F0070211F0180F226001D06FF0050052
:1025B00038BDF8B515461C4606466A460E2100F0A1
:1025C000D2F9BDF800100905C9082960002809D111
:1025D0006A460C21304600F0C6F9BDF80010090526
:1025E000C9082160F8BD03460020062902D3001F58
:1025F000002102E0194491F8281011707047000082
:10260000F8B504460020154606292ED2DFE801F071
:102610000305191B1D1D646B25E06A4644212046F5
:1026200000F0A1F9002803D1BDF800104FEA4126BF
:1026300006D1EEB12E604FF00101A66384F8291097
:10264000F8BDE46B0FE0246C0DE06A464FF06401C6
:10265000204600F088F9002804D100BFBDF8001022
:102660004FEA4124ECD12C60F8BD6FF00300F8BDB7
:10267000A16B29604FF00001E0E77CB50C4690F8B3
:10268000DA100025012604290AD06A46142100F038
:1026900054F900280BD19DF80010C90706D007E0B7
:1026A00001A9FFF775FF0199042901D025707CBDB0
:1026B00026707CBD01F04AB901F0AAB901F0C2B997
:1026C00001F0DCBBF0B58DB00C4605460C2302AA28
:1026D000142100F053F906007ED10021A17521607C
:1026E0009DF813009DF81220616000EB02209DF818
:1026F0000F209DF80E304FF47A7E02EB0322120475
:10270000D209E2609DF811309DF8106080B203EBB1
:1027100006231B04DB0923619DF80B309DF80A603A
:1027200003EB06239BB2A382B5F852619DF80870B3
:1027300095F831C176451FD0464306F5FA7696FBEB
:10274000FEF02E8C95F81CE080B2B6B2BEF1000F00
:1027500012D05E43B2EB262F08D1BCF1000F02D09D
:1027600042F2B82008E048F6E0200DE05043A2EB2A
:102770002626B0FBF6F080B2BCF1000F04D0810831
:1027800021818001E07501E02081E1750CA8CDE98F
:1027900000403946284601F07DFA060025D19DF813
:1027A0003000207605F150011C220D4605A8FDF7EA
:1027B000EBFC2089ADF81C00E07D8DF82B006089D2
:1027C000ADF81E0060680690E068089020690990E6
:1027D000A08AADF8280000E007E0207E8DF82C00EC
:1027E0001C2205A92846FDF7CFFC0DB03046F0BDF0
:1027F00038B5054600200C468DF800006A460121D8
:10280000284600F09AF800282AD123469DF8002097
:102810000021284603F0D8F8002821D1A31C9DF8F8
:1028200000200121284603F0CFF8002818D1631CAE
:102830009DF800200221284603F0C6F800280FD199
:10284000E31C9DF800200321284603F0BDF8002872
:1028500006D1231D9DF800200421284603F0B4F87A
:1028600038BD01F084BB38B50C4605466A460121E7
:1028700000F063F800280BD19DF8001085F83011A6
:10288000090601D5012100E00021217085F84C10D6
:1028900038BD02460020127F0A70704738B50D46D9
:1028A00004466A46202100F05EF8002807D1BDF8F2
:1028B000001029B1C900296021620121217738BDAA
:1028C000216A29600021F9E7012301F024BC01F00D
:1028D00042BC70B5047C054614B900F0D5F910B9B6
:1028E000284601F0C3FB50EA040102D1032185F818
:1028F000321170BD70B50C460546002100F051F84C
:10290000002810D12846FFF7E4FF00280BD121460C
:102910002846FFF7D7FE002805D12846BDE87040BD
:102920000021FFF7D9BC70BD08B50020014600901A
:10293000491C0091FA29FBD308BD10B5002490F87A
:102940005C0101F06DFD08B16FF01304204610BD6D
:1029500010B5002490F85C0101F065FD08B16FF03E
:102960001304204610BD10B5002490F85C0101F05E
:102970007BFD08B16FF01304204610BD10B5002494
:10298000402B00D3241F90F85C019BB201F061FD45
:1029900008B16FF01304204610BD4A088A2100F0E8
:1029A000B8BA0246002003290BD003DC49B1012943
:1029B00004D106E0142904D0152902D06FF00700D5
:1029C00070471174704770B51C46049E054611B1DE
:1029D0006FF0090070BD142A08D0152A0FD0052CFD
:1029E0006FD2DFE804F066686A6C6F002EB10122D6
:1029F000BDE87040842100F08CBA1022F8E7012273
:102A0000FF2100F086FA044600221146284600F015
:102A100080FA04430022FF21284600F07AFA04439A
:102A200001228021284600F074FA04430222852105
:102A3000284600F06EFA04430422FF21284600F0E5
:102A400068FA04430022CD21284600F062FA0443CC
:102A50001122CC21284600F05CFA04430722FF2112
:102A6000284600F056FA04430022BE21284600F012
:102A700050FA04430622FF21284600F04AFA044394
:102A80000922CC21284600F044FA04430022FF2109
:102A9000284600F03EFA04430122FF21284600F0B8
:102AA00038FA044300221146284600F032FA204347
:102AB00070BD002207E0012205E0022203E00322AC
:102AC00001E017E004220A21284600F022FA00283B
:102AD000EED196B11023EF228421284600F0F8F9B8
:102AE0000028E5D185F8DA402846BDE8704000218D
:102AF000FFF7F2BB6FF00A0070BD0023EBE70000A8
:102B00002DE9F041044600200D461646071F0346F6
:102B100001460246062D02D33846BDE8F08156B183
:102B200004EB85014B6B0121062DF5D2DFE805F0A2
:102B300005080F1215180122F6E784F8281017E08F
:102B4000C3F34F224421204600F0EEF90EE084F852
:102B50002A100DE084F82B100AE05300FE2201E059
:102B60001301EF226021204600F0B2F90028D4D1F1
:102B7000611926B15FF0010281F82820CDE700221B
:102B8000FAE770B514460022431800EB810593F86C
:102B90002830DBB1C4F34F23062914D2DFE801F05B
:102BA0000305080A0C0C446310E01A46442105E0B2
:102BB000C4630BE0046409E01A46642100F0B4F930
:102BC000020003D003E06FF0030200E06C631046E4
:102BD00070BD01F0B0BC2DE9F843074600209046D7
:102BE0000E468DF800006A4601213846FFF7A5FE23
:102BF00005009DF8000004462ED1291FB8F1010FF1
:102C000006D0052E2CD2DFE806F0191C1F22250065
:102C1000052E25D2DFE806F00306090C0F0044F06C
:102C2000100419E044F0280416E044F0040413E012
:102C300044F0400410E044F080040DE004F0EF04A0
:102C40000AE004F0D70407E004F0FB0404E004F019
:102C5000BF0401E004F07F04844210D015B10EE0FF
:102C60000D460CE022460121384600F052F90500DD
:102C700005D187F8304138467969FFF7AAFF284621
:102C8000BDE8F88301F00BBDF8B501250646047CCC
:102C90002A46802100F03DF90122FF21304600F054
:102CA00038F900221146304600F033F996F83A21FF
:102CB0009121304600F02DF901220021304600F02C
:102CC00028F90022FF21304600F023F9002280215C
:102CD000304600F01EF93CB10425012C26D0032C0F
:102CE0002FD06FF00700F8BD01220021304600F020
:102CF00010F98DF800500028F5D100244FF4FA6740
:102D000005E024B16A4600213046FFF716FE9DF823
:102D10000020641C25EA0201014304D0BC42E2D336
:102D20006FF00600F8BDBC42EBD3F9E718B90121FA
:102D30003046FFF793FA022209E000BF86F83251CD
:102D4000F8BD18B901213046FFF788FA04220021A6
:102D5000304600F0DEF80028F0D0F8BD30B597B06E
:102D60000446402101A8FDF728FA00258DF84450BB
:102D7000ADF850508DF8545001212046169500F0C2
:102D800051FB94F8142194F81311012A06D802D1AA
:102D9000202903D808E03AB90C2905D915AA16A9A3
:102DA000204601F0D8F902E0204601F025FC474911
:102DB00000287DD194F8500108B9D4F84C11204670
:102DC00001F002F900287ED100220423114620469A
:102DD0000095FFF7F8FD002875D10122FF2120465C
:102DE00000F097F8054614AA84212046FFF7BBFDA2
:102DF00005430022FF21204600F08BF8284362D1D2
:102E0000BDF8500001A90001C4F8D4002046FFF726
:102E100057FB002857D111A92046FFF791FB002846
:102E200051D19DF8440084F83101402201A904F1F8
:102E30001000FDF7A9F911AA01212046FFF77DFD39
:102E4000002840D19DF8440084F83001002211464A
:102E50002046FFF7C0FE002835D10022022120467F
:102E6000FFF7B9FE00282ED1032084F8320112AA00
:102E700000212046FFF7F5FC002824D19DF84800EA
:102E800084F8E80012AA01212046FFF7EAFC002896
:102E900019D19DF8480084F8E00013AA03212046C8
:102EA00002F023FA00280ED1139813AA042100E09F
:102EB00009E0C4F8E400204602F017FA002802D125
:102EC0001399C4F8DC1017B030BD00007800002062
:102ED0002DE9F84390F85C6190461F46894600242E
:102EE0006A46304601F09CFA6FF0130508B12C4693
:102EF0000CE09DF80020494602EA08023A438DF8AA
:102F00000020304601F0DBFC0028F0D12046BDE86F
:102F1000F88310B5002490F85C0101F0D0FC08B1F2
:102F20006FF01304204610BD10B5002490F85C012A
:102F300001F0D6FC08B16FF01304204610BD10B5A7
:102F40000024402B00D3241F90F85C019BB201F0B9
:102F5000BCFC08B16FF01304204610BD2DE9F0470A
:102F6000B0F854C1D0F85801DDE90A860CFB00F531
:102F70008035DDE908972C0A4FF0000A04FB0CF4B9
:102F8000554652B1880200EB5200B0FBF2F000EB64
:102F90004000404300F50040050C07F50040000CE0
:102FA0000622C01CB0FBF2F003FB09F303F500435B
:102FB000190C4943C0EBC000B0F5803F01D31C4859
:102FC00008E0FF1CB7FBF2F0C0EBC00000F50040CA
:102FD000000C4043084400EB5800B0FBF8F08003BD
:102FE000FE227F30B0FBF2F068434FF47A7100F5B7
:102FF000FA70B0FBF1F0000100F5FA70B0FBF1F7E8
:10300000402004F12001B1FBF0F000F0C8FF0546BC
:1030100027B104EB5700B0FBF7F000E0002000F010
:10302000BEFF3560854200D930605046BDE8F0876C
:103030000000F0FF01EBC10140F277600902A1FB43
:10304000000170472DE9FF4F87B00446006A0690E3
:10305000884608694FF47A714843000C0390D8F809
:103060000C000590DFF8F8B14FF4481604AA414669
:10307000204600F057FF06AA4146204600F060FFB8
:1030800081464FF47A710498069D484300F500404C
:10309000070C4D43B54200D93546B9F1000074D153
:1030A000D4F8DC00019094F8E060014632462046F6
:1030B00000F0DCF88246D4F8E4000090014694F871
:1030C000E820204600F0D2F801460320082E00D167
:1030D000022051444143C9024FF47A7001F5FA715C
:1030E000B1FBF0F140F27762514301F5FA71B1FBA7
:1030F000F0FA04988030010A01FB0AF08030060AD9
:10310000080204900FB14EB109E00999C1F800B06E
:10311000C4F840B10A98002101609CE001264FF4F8
:103120004870029003984F490004B0FBF7F08842C2
:1031300000D908464FF4167100FB01F906EB460072
:10314000800000F02CFF40000390B8F808104648BB
:103150006A424143380400EB42024FF47A7002F5B0
:10316000FA72B2FBF0F2431003EB0743B3FBF0F04B
:103170001202B2FBF0F0002800DA404298F8182062
:1031800000021AB14FF480350FE065E041F25C2295
:10319000B1FBF2F1C0F58030484300F50040000C6F
:1031A00000F5803040084043850B4FF4487105FB23
:1031B00001F000F50040010C09F50040000C494306
:1031C0004043084400F0EBFE000464213230B0FBC1
:1031D000F1F10398B1FBF0F040F6B531484341F20C
:1031E000883108444900B0FBF1F74FF47040874242
:1031F00000D90746DDE9001008444FF47A7800F55D
:10320000FA70B0FBF8F04FF4C81101EB5001B1FBBC
:10321000F0F000F0C4FE000200F5FA70B0FBF8F028
:103220007F434043384400F0BAFE414648430EB164
:10323000584500D9584609990860C4F840010A98D1
:10324000029B03908DE80806DDE904122B46204618
:10325000FFF784FE814648460BB0BDE8F08F0000C2
:10326000AE878F02666666009A99060000B50B4627
:103270001146FFF7DFFE4FF47A7100F5FA70B0FBEC
:10328000F1F04B4303EB5001B1FBF0F000BD00B592
:103290000B461146FFF7CEFE4FF47A7100F5FA7037
:1032A000B0FBF1F0434303F5FA73B3FBF1F000BD5B
:1032B0002DE9F0410F4615460446022100F0B2F810
:1032C00006000BD194F8F10058B194F8F200387070
:1032D00004F1F30105F14000FCF77AFF3046BDE848
:1032E000F0810020387085F84000F7E70146C0B251
:1032F000090A8840401C70474000801CC0B27047DB
:10330000F8B5064600228321FFF703FE040011D121
:1033100000254FF4FA676A4683213046FFF70DFB1C
:1033200004469DF8000020430BD0BD4202D300BFED
:103330006FF00604012283213046FFF7EAFD2043A7
:10334000F8BD6D1CBD42E6D3F2E70022114648B13C
:10335000401E02E04008491C89B2020AFAD161F31A
:103360001F2082B210467047FF2101EB5000C0B20F
:10337000704700007CB50C460A46054601A9FFF7D8
:1033800097FF00282BD19DF8040028B1222805D8EA
:10339000202805D012A106E014A104E0272801D2BC
:1033A00015A100E017A12046FCF712FF1BA104F1B4
:1033B0002000FCF70DFF04F16002C0212846FFF752
:1033C000BCFA00280BD16A46C2212846FFF7B5FA9D
:1033D000012104F8611F9DF80010090961707CBD8E
:1033E000564C35334C30582054533100564C3533FD
:1033F0004C30582054533000564C35334C30582004
:1034000054533200564C35334C30582045533120FC
:103410006F72206C6174657200000000564C353389
:103420004C3058002DE9F04F95B0002504460E951C
:103430004FF4C8500F95CDE90450129594F8F06000
:103440000F46AB46AA46072E7ED001228021204699
:10345000FFF75FFD80460122FF212046FFF759FD5F
:1034600040EA0805002211462046FFF752FD40EAD7
:1034700005080622FF212046FFF74BFD40EA08051C
:1034800002AA83212046FFF758FA40EA05089DF872
:103490000800832140F004022046FFF73AFD40EA8D
:1034A00008050722FF212046FFF733FD40EA050803
:1034B000012281212046FFF72CFD40EA0805204625
:1034C000FFF732FA40EA0508012280212046FFF783
:1034D00020FD40EA0805F80755D0F00753D16B22CC
:1034E00094212046FFF715FD40EA05082046FFF726
:1034F00007FF40EA080501AA90212046FFF728FAB5
:1035000040EA050801982422C0F30621C0F3C03B1D
:10351000129194212046FFF7FCFC40EA0805204662
:10352000FFF7EEFE40EA050801AA90212046FFF7CA
:103530000FFA40EA08050198010E8DF82C10010CD5
:103540008DF82D10010A00E0FCE18DF82E108DF8A9
:103550002F00252294212046FFF7DBFC40EA0508D6
:103560002046FFF7CDFE40EA080901AA9021204637
:10357000FFF7EEF940EA09050198010E8DF83010C9
:10358000000C8DF83100B8077ED5B0077CD402223C
:1035900094212046FFF7BDFC40EA05082046FFF7CE
:1035A000AFFE40EA080513AA90212046FFF7C5F9AF
:1035B00040EA05087B2294212046FFF7AAFC40EA56
:1035C00008052046FFF79CFE40EA050810AA902156
:1035D0002046FFF7B2F940EA0805772294212046F9
:1035E000FFF797FC40EA05082046FFF789FE40EA0E
:1035F000080501AA90212046FFF7AAF940EA05082C
:1036000001987822410E8DF81810C0F386418DF88C
:103610001910C0F3C6218DF81A10C0F30611000767
:10362000400E8DF81B108DF8080094212046FFF7FE
:1036300070FC40EA08052046FFF762FE40EA0508F4
:1036400001AA90212046FFF783F940EA08059DF87A
:103650000810019801EB50718DF81C10C0F38651D1
:103660008DF81D10C0F3C6318DF81E10C0F3062171
:103670008DF81F10C0F34601C007400E8DF82010D2
:103680008DF80800792200E055E094212046FFF7EC
:1036900040FC40EA05082046FFF732FE40EA0805F4
:1036A00001AA90212046FFF753F940EA05089DF84A
:1036B000081001987A2201EB90618DF82110C0F377
:1036C000C6418DF82210C0F306318DF82310C0F3E7
:1036D0004611C006400E8DF824108DF80800942184
:1036E0002046FFF716FC40EA08052046FFF708FED3
:1036F00040EA050801AA90212046FFF729F940EA8F
:1037000008059DF80810019801EB90718DF82510BF
:10371000C0F3C6518DF82610C0F306418DF827106E
:10372000C0F346218DF82810C0F386008DF82900DB
:1037300000208DF82A0078077ED570077CD47B2284
:1037400094212046FFF7E5FB40EA05082046FFF7F5
:10375000D7FD40EA08050EAA90212046FFF7F8F8A9
:1037600040EA05087C2294212046FFF7D2FB40EA7C
:1037700008092046FFF7C4FD40EA09050FAA902179
:103780002046FFF7E5F840EA050873229421204619
:10379000FFF7BFFB40EA08052046FFF7B1FD40EA0E
:1037A000050801AA90212046FFF7D2F840EA080553
:1037B0000198742200064FEA104994212046FFF731
:1037C000A8FB40EA05082046FFF79AFD40EA0805F5
:1037D00001AA90212046FFF7BBF8019940EA0508AD
:1037E00049EA11600490752294212046FFF791FB6D
:1037F00040EA08052046FFF783FD40EA050901AAD3
:1038000090212046FFF7A4F840EA090801987622A3
:1038100000064FEA104994212046FFF77AFB40EA60
:1038200008052046FFF76CFD40EA050801AA902133
:103830002046FFF78DF800E004E0019940EA080512
:1038400049EA116A002281212046FFF762FB40EA23
:1038500005080622FF212046FFF75BFB40EA08052A
:1038600002AA83212046FFF768F840EA05089DF880
:103870000800832100F0FB022046FFF74AFB40EAE4
:1038800008050122FF212046FFF743FB40EA050817
:10389000012200212046FFF73CFB40EA08050022F8
:1038A000FF212046FFF735FB40EA05080022802172
:1038B0002046FFF72EFB50EA080543D1F8070FD04A
:1038C000F0070DD1129884F8130184F814B1002088
:1038D0000BA923180A5C401C83F82A210628F8DB70
:1038E000B8070ED5B0070CD49DF84C0084F8F10051
:1038F0009DF8400084F8F20004F1F30006A9FCF7FB
:1039000067FC780719D5700717D40E98C4F818010A
:103910000F98C4F81C0104984002C4F8200100204C
:10392000BAF1000F08D00599AAEB01004FF47A1103
:1039300048430014404200B2E0603E438DF8086006
:1039400084F8F06015B02846BDE8F08F30B585B03A
:1039500005464FF4FA6002900020039040F636309E
:1039600008600C4669462846FEF742FF00284DD104
:103970009DF8001029B99DF8011011B99DF80210A9
:1039800011B302AA0221284601F0AFFC00283DD164
:103990009DF8001029B10299226801F24E211144CC
:1039A00021609DF8021031B10299226801F2B22122
:1039B00002EB410107E09DF8011029B1029922684C
:1039C00001F52571114421609DF8031061B103AA2E
:1039D0000321284601F089FC0399226801F525712D
:1039E00011442160002811D19DF8041061B104AA8E
:1039F0000421284601F079FC0499226801F226216D
:103A000011442160002801D12168696105B030BDF1
:103A100038B50C4640F2FF756A462821FEF7A3FF31
:103A200000280DD1BDF80010C1F30B02ADF8002045
:103A3000AA424FF0FA0101DDA2F580524A4322600A
:103A400038BD000010B500240B4610F1080F3DD022
:103A50001DDC10F1140F41D00CDC10F1630F45D0C8
:103A600010F1320F40D010F1280F3BD010F11E0F93
:103A70003ED135E010F10C0F22D010F10B0F2BD0FE
:103A800010F10A0F26D010F1090F31D120E0C01D2E
:103A900008282DD2DFE800F0181612100E0C0604CC
:103AA00014A100E016A11846FCF792FB204610BDB9
:103AB0001AA1F8E71EA1F6E721A1F4E727A1F2E792
:103AC0002BA1F0E730A1EEE732A1ECE735A1EAE760
:103AD0003BA1E8E73FA1E6E743A1E4E749A1E2E72C
:103AE0004EA1E0E753A1DEE758A1DCE75EA1DAE7EB
:103AF00063A1D8E74E6F204572726F72000000001C
:103B000043616C6962726174696F6E205761726E95
:103B1000696E67204572726F720000004D696E20F9
:103B2000636C6970706564206572726F720000006A
:103B3000556E646566696E6564206572726F7200A9
:103B4000496E76616C696420706172616D6574653F
:103B50007273206572726F72000000004E6F7420E5
:103B6000737570706F72746564206572726F720025
:103B7000496E74657272757074206E6F7420436C38
:103B8000656172656400000052616E676520657250
:103B9000726F720054696D65206F75742065727262
:103BA0006F7200004D6F6465206E6F7420737570C6
:103BB000706F72746564206572726F72000000002D
:103BC00042756666657220746F6F20736D616C6CF0
:103BD000000000004750494F206E6F7420657869DF
:103BE0007374696E670000004750494F2066756E18
:103BF0006374206E6F7420737570706F7274656477
:103C000000000000436F6E74726F6C20496E746523
:103C10007266616365204572726F7200496E7661EB
:103C20006C696420436F6D6D616E64204572726FC4
:103C3000720000004469766973696F6E20627920B2
:103C40007A65726F204572726F7200005265666508
:103C500072656E6365205370616420496E697420DB
:103C60004572726F720000004E6F7420696D706C47
:103C7000656D656E746564206572726F7200000018
:103C8000556E6B6E6F776E204572726F7220436F48
:103C9000646500002DE9FF4F8BB04FF00009199DBE
:103CA0008DF800909A460646C8464F468DF8049017
:103CB0008DF808908DF80C90ADF81090C1F3C30406
:103CC000CDF81490BCB1052C15D0072C13D00C2CBA
:103CD00011D00D2C0FD00E2C0DD00F2C0BD000209E
:103CE00083466A4600213046FEF77DFC9DF80010B1
:103CF000C9B110B11DE00120F2E705AB06AA3046BC
:103D00001899FFF79FF9A0B91899059807AA488153
:103D100000213046FEF774FC079921B1069A8A42C9
:103D200001D94FF0010920B902AA02213046FEF75D
:103D30005AFC9DF8081011B338BB08AA022130467E
:103D4000FEF75EFC80B90122FF213046FFF7E1F863
:103D500050B904AAB6213046FEF705FE20B900226C
:103D6000FF213046FFF7D5F8BDF810104902C6F81C
:103D70004811089A1AB1914201D94FF0010820B9AF
:103D800003AA03213046FEF72EFC9DF80C1091B1DA
:103D900090B9BAF1000F12D00D980102B1FBFAF000
:103DA000824609AA03213046FEF72AFC099911B17F
:103DB0008A4500D2012720B1287858B32DE0002091
:103DC000EEE7BBF1000F01D0FF2013E0012C10D073
:103DD000022C0ED0032C0CD0062C0DD0092C0BD0AD
:103DE000082C04D00A2C02D0B8F1000F06D0032012
:103DF00000E00520287010E00420FBE7042C00D030
:103E00000FB10220F6E7B9F1000F01D00120F1E770
:103E10000020287018990020488101AA012130460D
:103E2000FEF7E1FB002825D19DF8001011B15FEAF3
:103E3000090100D0012186F82E10042C15D09DF820
:103E4000041091B15FF0000186F82F109DF8081062
:103E500011B15FEA080100D0012186F830109DF809
:103E60000C1001B11FB1012102E00121ECE700219A
:103E700086F831100FB0BDE8F08F000010B50024B7
:103E80000B46062814D2DFE800F003050B0D0F11D6
:103E900008A100E00BA11846FCF79AF9204610BDD6
:103EA0000CA1F8E70FA1F6E712A1F4E715A1F2E7DC
:103EB00018A1F0E752616E67652056616C69642055
:103EC000202000005369676D61204661696C2020E5
:103ED000202000005369676E616C204661696C2088
:103EE000202000004D696E2052616E67652046619A
:103EF000696C00005068617365204661696C202020
:103F00002020000048617264776172652046616913
:103F10006C2000004E6F2055706461746520202075
:103F20002020000038B51446CA6822606A4600F0B6
:103F300007F8002803D12168009A1144216038BD98
:103F4000F8B5064600200D46106014466946304616
:103F5000FEF79FFC002809D19DF80010002905D02C
:103F6000A98A326A51438031090A2160F8BD38B507
:103F7000144621B1012905D06FF003010DE06A4616
:103F8000502101E06A467021FEF7D7FC010004D100
:103F90009DF80000FFF7B0F92070084638BD0246D2
:103FA00000204FF0804100E089089142FCD808E0F1
:103FB0004318934203D8D21A01EB500000E04008A6
:103FC00089080029F4D17047F8B5074600200D464E
:103FD0000446061F13E0CBB2641CFF2B05D0042B54
:103FE0000CD8295D00206A4639E0295D641C61B166
:103FF000012912D0022918D003291ED03046295D8C
:10400000002901D00028E6D0F8BD2A5D641C295D96
:1040100001EB0221A7F8341116E0295D641C2A5D2A
:1040200002EB0121A7F836110EE02A5D641C295D20
:1040300001EB0221A7F8381106E0295D641C2A5D16
:1040400002EB0121A7F83C11641C295D0029C2D1B3
:10405000F8BD00BF15F804C002F800C0401C641C85
:104060009842F7DB3846FEF76AFFC8E7F8B5064620
:1040700000208DF8000004464FF4FA65694630468A
:10408000FEF7FBFA002807D19DF80010012903D0A4
:10409000641CAC4201D3C01FF8BD3046FEF744FC9F
:1040A000ECE72DE9F04385B01D0091460E4607462A
:1040B0004FF0000401D097F8304102220121FEF7B1
:1040C00028FF4FF0000838B90021384600F052F9B7
:1040D00010B9B9F1010F11D086F8008000280AD17B
:1040E000002D08D0224601213846FEF712FF002895
:1040F00001D187F8304105B0BDE8F083012004A963
:10410000CDE90016CDE90280424601461346384605
:1041100000F0B8F9E2E72DE9F0411E4617460546E2
:1041200090F830410023324600F040F9002810D1C9
:104130000023324639462846FFF7B3FF002808D14E
:10414000224601212846FEF7E4FE002801D185F829
:104150003041BDE8F0812DE9F74F96B006462C209E
:104160000B9000200E9011908DF84C008DF85000AF
:104170001290B6F83CA14FF0B4094FF0030B014682
:104180004FF00608074672180020491C82F82401E7
:104190004145F8D30122FF213046FEF7BAFE040064
:1041A00079D100224F213046FEF7B3FE0400F7D14B
:1041B0002C224E213046FEF7ACFE0400F0D1002246
:1041C000FF213046FEF7A5FE0400E9D14A46B6219C
:1041D0003046FEF79EFE0400E2D1002280213046E8
:1041E000FEF797FE0400DBD1002314AA13A9304682
:1041F000FFF791FF0400D3D106F592730EAACDF814
:10420000008006930E90CDE903B29A1D0A92CDE983
:1042100001900146304600F0C9FF04003BD109A9D6
:1042200030460E9D01F054FB040034D1BDF824103B
:10423000514531D900213218401C82F824114045E3
:10424000F9D300E06D1C09EB050001F0C7F810B9C7
:104250000B988542F6D301200EA9CDF80080159069
:10426000CDE903B1CDE9019501463046069B0A9A96
:1042700000F09CFF040079D109A930460E9D01F0A1
:1042800027FB040072D1BDF82410514505D9012047
:104290005F46129001E051E0159089B2514555D228
:1042A000159812905F4642460FA80699FBF76CFFDF
:1042B000BDF82410B1EB0A0000D54042834611AB93
:1042C0002A4641460A9800F0DDFF1198411C0FD0A4
:1042D000484401F083F8159988422ED1119D41463A
:1042E0002A467F1C069800F0ABFF040003D03DE097
:1042F0006FF031043AE030466D1C069901F080FB06
:10430000040033D109A9304601F0E2FA04002DD1AE
:10431000BDF82410B1EB0A0000D5404251450ED93A
:1043200058450AD90FA9304601F06AFB04464246B7
:104330000FA90698FBF728FF7F1E3CB116E08346C5
:1043400042460FA80699FBF71FFFB8E717980760CA
:10435000189912980870012086F8150117980078AE
:1043600086F813011898007886F8140119B02046D1
:10437000BDE8F08F10B541F0010204460021FEF7C0
:10438000C8FD002811D12046FFF770FE00280CD18F
:1043900000212046FDF7A0FF002806D1204600227C
:1043A000BDE810401146FEF7B4BD10BD2DE9F04345
:1043B00085B04FF000051E0091460F4680462C4602
:1043C0008DF8105001D098F8305101221146FEF7B7
:1043D000A0FD38B940214046FFF7CCFF10B9B9F134
:1043E000010F10D03C7000280AD1002E08D02A46B8
:1043F00001214046FEF78DFD002801D188F830519B
:1044000005B0BDE8F083012004A900970394CDE92D
:104410000110224601461346404600F033F8E2E719
:10442000012300F016B838B5144604236A4600F09C
:1044300010F89DF803109DF800209DF8023001EB64
:1044400002619DF80120120402EB03221144216055
:1044500038BD70B51D46134600242A4600F0D0FA38
:1044600000B10124204670BD38B5144602236A46C7
:10447000FFF7EFFF9DF801109DF8002001EB0221EE
:10448000218038BD2DE9FF4F81B00020DDE90EA964
:10449000DDE910650F468DF800009B460122FF21E3
:1044A0000198FEF736FD0446002211460198FEF7FA
:1044B00030FD40EA04080022FF210198FEF729FDA3
:1044C00040EA08046FB12EB15246CB210198FEF7A5
:1044D00034FA0443A5B16A46EE210198FEF72DFA9D
:1044E0000DE02EB1CB21039A0198FEF712FD044393
:1044F00035B15B468022EE210198FEF7E9FC0443CA
:104500000122FF210198FEF704FD0443012200214E
:104510000198FEF7FEFC04430022FF210198FEF7FC
:10452000F8FC9DF80010204301F0EF0289F800200C
:1045300005B0BDE8F08F2DE9FF4107464FF4FA6062
:1045400002900020039044F620600E466FF00305B1
:1045500081424FD3A6F6363469463846FEF748F90D
:10456000002844D19DF8001029B99DF8011011B917
:104570009DF8021001B302AA0221384600F0B5FEF0
:10458000002834D19DF8001029B1029901F24E2182
:10459000A1422FD2641A9DF8021021B1029901F2B2
:1045A000B221490005E09DF8011029B1029901F5F9
:1045B0002571A1421ED2641A9DF8031061B103AAAD
:1045C0000321384600F091FE039901F52571A142BF
:1045D00010D2641A00280AD19DF80410002906D0D0
:1045E000A4F226220421384601F00FFA7E6104B0BD
:1045F000BDE8F0812846FAE72DE9F0479046894664
:1046000086B004460025B42606274FF02C0A012266
:10461000FF21FEF77EFCB0B900224F212046FEF7B5
:1046200078FC80B92C224E212046FEF772FC50B94E
:104630000022FF212046FEF76CFC20B93246B6214D
:104640002046FEF766FC002001462218401C82F836
:104650002411B842F9D3B8F1000F01D106E06D1C66
:10466000701900F0BBFE08B95545F8D305A90097AD
:10467000CDE90391CDE9016504F592739A1D414698
:10468000204600F093FD002806D1012184F8151181
:1046900084F8139184F8148106B0BDE8F0872DE901
:1046A000FF41074600208DF80C0014460E46D00747
:1046B0006FF0030571D116B1012E0DD0B2E00C2CB4
:1046C0006BD3122C69D80C2C13D00E2C13D0102CB9
:1046D00013D0122C13D0A5E0082CF1D30E2CF1D856
:1046E000082C17D00A2C44D00C2C57D00E2C69D093
:1046F00098E0182204E0302202E0402200E050223C
:1047000057213846FEF705FC082256213846FEF7A9
:1047100000FC85E0102248213846FEF7FAFB08220B
:1047200047213846FEF7F5FB804602223221384603
:10473000FEF7EFFB40EA08080C2230213846FEF76E
:10474000E8FB40EA08080122FF213846FEF7E1FBBA
:1047500040EA0808302211463846FEF7DAFB40EA04
:1047600008080022FF213846FEF7D3FB40EA080084
:1047700056E0282248213846FEF7CBFB0822472185
:104780003846FEF7C6FB8046032232213846FEF744
:10479000C0FB40EA0808092227E04AE03822482105
:1047A0003846FEF7B6FB082247213846FEF7B1FB34
:1047B0008046032232213846FEF7ABFB40EA080868
:1047C000082212E0482211463846FEF7A2FB0822D2
:1047D00047213846FEF79DFB8046032232213846AA
:1047E000FEF797FB40EA0808072230213846FEF71B
:1047F00090FB40EA08080122FF213846FEF789FBBA
:1048000040EA0808202230213846FEF782FB40EAC1
:1048100008080022FF213846FEF77BFB40EA08002B
:10482000002807D12046FEF79FFD80462EB1012EBD
:1048300023D0284604B0BDE8F08101AA0321384600
:1048400000F053FDB0B902AA0221384600F04DFD38
:1048500080B9424650213846FEF75BFB50B9032130
:104860003846019A01F0D1F820B902213846029A5F
:1048700001F0CBF887F8E84012E06A460421384698
:1048800000F033FD50B9424670213846FEF741FB37
:1048900020B904213846009A01F0B7F887F8E040C3
:1048A0000028C7D138467969FEF793F90028C1D1AD
:1048B0000123002203A93846FFF7F3FBBAE707B547
:1048C000012302AA00F001F80EBD70B51D46134683
:1048D00000242A4600F068F900B10124204670BD8A
:1048E00038B50546100A8DF800000C468DF80120F9
:1048F000C80708D001236A462846FFF7E6FF0123D0
:104900006A46214601E002236A462846FFF7DDFF9A
:1049100038BD000070B50D4C0025C4F8A8510C48F6
:10492000416821F0F0014160416841F0300141608F
:10493000C4F8A451022004F5D27400F01FFC012039
:104940006060022000F01AFC656070BD0000244227
:104950000020014070B50D4C0025C4F8A8510C484A
:10496000416821F0F0014160416841F0300141604F
:104970000126C4F8A461022004F5D27400F0FEFB05
:104980006660022000F0FAFB656070BD0000244202
:10499000002001402DE9F047814617480024416876
:1049A00021F0F0014160416841F080014160134E07
:1049B000254627464FF00108C6F8A871042000F0EC
:1049C000DDFBC6F8A8816006040ED6F8240108B104
:1049D000641CE4B2042000F0D1FB6D1CEDB2082D84
:1049E000EAD3B9F1000F04D0FFF794FF2046BDE8E9
:1049F000F087FFF7AFFFF9E70020014000002442F5
:104A00002DE9F0411D4614460F46064600F05EF8BB
:104A1000304600F027F800F09BF820B100F076F85F
:104A20000120BDE8F081384600F01CF800F090F855
:104A300000F04CF846F0010000F014F800F088F89F
:104A400008E0012C0CD00120FFF7A4FF641E05F83C
:104A5000010BA4B2002CF4D100F058F80020E0E7DC
:104A60000020F1E72DE9F04106461648416821F0A3
:104A7000F0014160416841F030014160124C002773
:104A8000C4F8A8713D464FF00108300602D5C4F8BD
:104A9000A48101E0C4F8A4717006060E022000F0A3
:104AA0006DFBC4F8A881022000F068FBC4F8A8716F
:104AB000022000F063FB6D1CEDB2082DE5D3BDE8CC
:104AC000F0810000002001400000244270B50D4834
:104AD000416821F0F0014160416841F030014160DE
:104AE000094C0120C4F8A401C4F8A801042004F56D
:104AF000D27400F043FB00252560042000F03EFB4B
:104B0000656070BD00200140000024420E4810B5D1
:104B1000416821F0F0014160416841F0300141609D
:104B20000A4C0020C4F8A801C4F8A401042004F52C
:104B3000D27400F023FB012060602060BDE81040CB
:104B4000042000F01BBB00000020014000002442B4
:104B500070B513480024416821F0F00141604168BC
:104B600041F0800141600F4D0126C5F8A461304637
:104B700000F004FBC5F8A861012000F0FFFA07E08F
:104B8000641CE4B2FA2C03D9FFF7C0FF012070BD0A
:104B9000D5F824010028F3D1C5F8A80170BD0000A4
:104BA00000200140000024422DE9F0411C4615463A
:104BB0000F460646FFF78AFF3046FFF753FFFFF721
:104BC000C7FF20B1FFF7A2FF0120BDE8F081384602
:104BD00002E000BF14F8010BFFF744FFFFF7B8FF36
:104BE0006D1EADB2F6D2FFF791FF0020EDE7000099
:104BF0000FB4054B10B503A9044A029800F02EF833
:104C000010BC5DF814FB00006D520008400300204A
:104C10000907090E002804DB00F1E02080F80014E9
:104C2000704700F00F0000F1E02080F8141D70477D
:104C300002E008C8121F08C1002AFAD17047704765
:104C4000002001E001C1121F002AFBD170470000C3
:104C50000149086070470000440300202DE9FF4F20
:104C60008DB00F460546002606E025280BD0DDE96D
:104C70000F1290476D1C761C28780028F5D111B0D2
:104C80003046BDE8F08F0024A246A1460122EC493F
:104C900000E0044315F8013F203B02FA03F008420C
:104CA000F7D128782A2810D06FF02F022878A0F1A9
:104CB0003001092914D80AEB8A0102EB410144F0C2
:104CC000020400EB010A6D1CF0E701CF5FEA000A65
:104CD00003D544F40054CAF1000A44F002046D1CE8
:104CE00028782E2817D115F8010F44F004042A283B
:104CF0000ED06FF02F022878A0F1300109290AD8D0
:104D000009EB890102EB410100EB01096D1CF2E79F
:104D100057F8049B6D1C28786C280FD006DC4C28B3
:104D200017D068280DD06A2814D104E0742810D058
:104D30007A280FD10DE044F400140AE044F4801402
:104D400001E044F440146978814202D104F58014F2
:104D50006D1C6D1C2A786E2A1FD00CDC632A31D0A2
:104D600004DC002A8BD0582A11D1A3E0642A68D031
:104D7000692A0CD165E0732A2ED004DC6F2A73D027
:104D8000702A04D19BE0752A6FD0782A6ED0104625
:104D9000DDE90F129047761C50E1C4F3025002285F
:104DA00006D0032809D0042801CF09D0066045E1C8
:104DB00001CFF117C0E9006140E101CF06803DE17C
:104DC00006703BE117F8040B8DF8000000208DF809
:104DD0000100EB46012003E057F804BB4FF0FF3021
:104DE00061074FF0000102D40DE008F1010188468F
:104DF00049450FDA8045F8DB1BF808100029F4D18B
:104E000008E008F1010188468142FADB1BF808102E
:104E10000029F6D1DDE90F23AAEB080081462146DF
:104E200000F036F9304400EB080604E0DDE90F122B
:104E30001BF8010B9047B8F10108F7D2214648460C
:104E4000F7E00A21C4F302534FF0000B0891022B44
:104E500004D001CFC117032B09D00AE0FF1D27F0B2
:104E60000707F7E8020108E032E01FE020E000B2A7
:104E7000C117042B01D140B2C117031E71F1000309
:104E800007DA4FF0000CD0EB0C006CEB01012D2386
:104E900002E0230504D52B238DF82430012303E001
:104EA000E30701D02023F7E7984658E00A2110E0F5
:104EB00010210EE010204FF0000B08900CE01021A4
:104EC0004FF0000B44F004044FF00809089103E090
:104ED00008214FF0000B0891C4F30253022B04D0B9
:104EE00001CF0021032B06D006E0FF1D27F00707A6
:104EF000F7E8020103E080B2042B00D1C0B24FF00A
:104F0000000823072BD5702A07D0DDF820C08CF0CD
:104F1000100C5CEA0B0C05D00EE040238DF8243019
:104F2000012308E050EA010306D030238DF8243035
:104F30008DF8252002239846DDF820C08CF0080C5F
:104F40005CEA0B0C0BD150EA010301D1630706D5D3
:104F500030238DF824304FF00108A9F10109582AB7
:104F600004D038A20B9208AA0A920BE03AA2F9E701
:104F70005B46089AFBF73CFA0B9B9B5C0A9A521E15
:104F80000A92137050EA0102F2D10A98ADEB0000C8
:104F900000F1200B600702D524F4803401E04FF0CB
:104FA0000109D94502DDA9EB0B0000E0002000EB70
:104FB0000B0141440890AAEB010AE00306D4DDE9A5
:104FC0000F232146504600F063F806444FF00009D5
:104FD00008E009A911F80900DDE90F12904709F16D
:104FE0000109761CC145F4DBE0030CD5DDE90F2394
:104FF0002146504600F04CF8064404E0DDE90F126B
:1050000030209047761C0899481E08900029F5DC4E
:1050100008E00A980A990078491C0A91DDE90F1204
:105020009047761CBBF10001ABF1010BF1DC21468E
:105030005046DDE90F2300F019F806446D1C1BE60D
:10504000092801003031323334353637383961625E
:105050006364656600000000303132333435363722
:105060003839414243444546000000002DE9F041F3
:10507000044600251E461746880404D405E0394638
:105080002020B0476D1C641EF9D52846BDE8F0818C
:105090002DE9F041044600251E469046C80301D57F
:1050A000302700E02027880404D505E04146384633
:1050B000B0476D1C641EF9D52846BDE8F08100009C
:1050C00010B500F071FC4FF47A7423461A4611466D
:1050D0000848FCF75DFB4FF46160FBF7BDFA00F098
:1050E0002BF823461A46BDE8104011464AF6E03038
:1050F000FCF74EBB2054FFFF10B500F055FC01201B
:10510000FBF7AAFA4FF47A7423461A461146094867
:10511000FCF73EFB40F6AC50FBF79EFA00F00CF8B3
:1051200023461A46BDE81040114642F6F820FCF727
:105130002FBB00002054FFFF04484FF49661026823
:10514000516300684FF4487181637047B4030020D5
:1051500070B5084C084E40F2B63507E03168C863B8
:10516000C82000F00BF82088401E20802088A8422C
:10517000F4D870BD38000020B403002070B54FF0A3
:10518000E02300215C6900EBC0009A69C5009869C2
:105190009042FCD002D2A2EB000202E0A4EB000697
:1051A000324411440246A942F1D370BD2DE9FF4FAC
:1051B00083B00024DDE9125A149F9B46DDF840902D
:1051C00026466FF0310800951AE06B462A4649469C
:1051D000059800F057F80098411C06D01199084432
:1051E00000F0FCF80499884202D044463D6023E078
:1051F000009D49462A46584600F022F86D1C761C50
:105200005645E2D33D60BCB95946039800F0F8FB1F
:10521000040011D101A9039800F062F804460020AF
:1052200001A907E01BF800200B5C9A4201D044461C
:1052300002E0401C4845F5D307B02046BDE8F08F9A
:1052400070B50825B2FBF5F3B2FBF5F60446002075
:1052500005FB16228B4202D36FF0310070BDE15C7A
:10526000012595402943E15470BD000013B54FF668
:10527000FF73012269460248FCF730FA00981CBD12
:105280008C0400202DE9F043082581464FF0FF30C3
:105290001860B2FBF5F0B2FBF5F605FB10274FF0F6
:1052A000000C304615E0002219F80040B04202D14F
:1052B000FC403A460AE05FEAC47805D000FB0522CC
:1052C0004FF0010C1A6003E06408521CAA42F2D3AA
:1052D000401C884202D2BCF1000FE4D0BDE8F0834C
:1052E00006230A46B021FDF749BB2DE9F041002411
:1052F0008AB0174680468DF81C402546ADF8184008
:10530000264641B1012906D0022904D0032912D032
:10531000042929D05DE06A4600214046FDF7A1FA44
:10532000040005D107AA46214046FDF706FB0446C6
:105330009DF81C0015E06A4600214046FDF791FAF1
:10534000040046D16A4600214046FDF78AFA04006F
:1053500005D106AA51214046FDF705FB0446BDF8DC
:105360001800FDF7C3FF2DE004A94046FDF740FA01
:105370009DF81300002590B16A4600214046FDF7D4
:1053800070FA04001DD106AA51214046FDF7EBFA40
:105390000446BDF81800FDF7A9FF85B28CB96A462E
:1053A00001214046FDF75DFA04000AD108AA7121E7
:1053B0004046FDF7D8FA0446BDF82000FDF796FFF9
:1053C00086B2701B81B29DF800204046FDF75FFF5A
:1053D00005463D600AB02046BDE8F0810146044A1A
:1053E0008909012052F82110002900D100207047BE
:1053F00024030020FBF756FAFCF75CFDFCF77EFA6D
:10540000FCF74EFCFCF776FBFCF7C2FBFCF710FC4C
:10541000FCF72EFB714D0024C5F8B841C5F8B44126
:10542000C5F8B0416E4805F5D875FBF79BFD6D4892
:10543000FBF798FD00216B48FBF7E6FF0421694864
:10544000FBF7E2FF08216748FBF7DEFF0021644815
:10545000FBF7DAFF04216248FBF7D6FF082160481A
:10546000FBF7D2FF0C215E48FBF7CEFFAC606C600F
:105470002C6001215C4800F00FFC02215B4800F029
:105480000BFC4FF47A755A4EFCF786FC102829D293
:10549000DFE800F04E08A10A0C0E171B23292F3558
:1054A0003B41454A53A091E053A08FE053A08DE0CB
:1054B0002B4629461A4642F6F820FCF769F950A017
:1054C00084E0FFF739FE4FA080E02B4629461A46BC
:1054D0004D48FCF75DF94DA078E04DA0FFF788FB43
:1054E00000F062FA77E04BA0FFF782FBFFF704FEC3
:1054F00071E049A0FFF77CFB00F046FA6BE047A0A3
:10550000FFF776FBFFF7DCFD65E045A0FFF770FBDA
:1055100000F02AFA5FE000F0C5F942A056E0002151
:10552000314800F08FFB56E0FFF712FE3EA04DE041
:105530000520FCF7D3FB81460620FCF7CFFB804615
:105540000720FCF7CBFB07460820FCF7C7FB802FA2
:1055500009D0A7F140017F2918D8B22808D900F056
:10556000D9F832A032E08028F7D1B9F1800F09D004
:10557000A7F140017F2909D8322807D200F0FCF8B2
:105580002BA023E0B8F1800F0FD124E040387F2812
:105590000BD8322F03D200F021F926A016E0B22F4B
:1055A00003D900F04DF924A010E0A8F140007F28B5
:1055B0000FD8B9F1B20F03D900F07AF81FA005E0B7
:1055C000B9F1320F05D200F041F81EA0FFF710FB31
:1055D00001E000F0C1FA346056E700000000244208
:1055E000FC030020B4030020CC0400202C06002083
:1055F00028000020310000003300000034000000CB
:10560000350000003600000008D5FFFF370000001D
:105610003800000039000000313000003131000056
:10562000313200003133000031350000BAF30000A0
:10563000C7B00000D7F30000D3D20000D3D2D7AA5E
:1056400000000000D7F3D7AA0000000070B5164C88
:1056500000224FF480512046FBF711F9134D01222F
:1056600011462846FBF70BF9002221152046FBF7CF
:1056700006F90122D1022046FBF701F90122082197
:105680002846FBF7FCF8002210212846FBF7F7F824
:10569000012202212846FBF7F2F82846BDE87040B7
:1056A00000220421FBF7EBB8001001400014014078
:1056B00070B5164C012211032046FBF7E0F8144D9B
:1056C000002201212846FBF7DAF801229102204648
:1056D000FBF7D5F80022E1142046FBF7D0F80022B2
:1056E00008212846FBF7CBF8012210212846FBF7BA
:1056F000C6F8002202212846FBF7C1F82846BDE87B
:10570000704001220421FBF7BAB8000000100140EC
:105710000014014070B5164C00224FF48051204611
:10572000FBF7ADF8134D012211462846FBF7A7F809
:10573000002221152046FBF7A2F80122D1022046C3
:10574000FBF79DF8002208212846FBF798F8012274
:1057500010212846FBF793F8002202212846FBF788
:105760008EF82846BDE8704001220421FBF787B877
:10577000001001400014014070B5164C01221103C5
:105780002046FBF77CF8144D002201212846FBF748
:1057900076F8012291022046FBF771F80022E1140D
:1057A0002046FBF76CF8012208212846FBF767F832
:1057B000002210212846FBF762F801220221284628
:1057C000FBF75DF82846BDE8704000220421FBF796
:1057D00056B80000001001400014014070B5164C8E
:1057E00000224FF480512046FBF749F8134D012267
:1057F00011462846FBF743F8012291022046FBF7A9
:105800003EF80022E1142046FBF739F80122082176
:105810002846FBF734F8002210212846FBF72FF822
:10582000002202212846FBF72AF82846BDE87040EE
:1058300001220421FBF723B80010014000140140AD
:1058400070B5164C012211032046FBF718F8144DD1
:10585000002201212846FBF712F8002221152046DC
:10586000FBF70DF80122D1022046FBF708F80022D1
:1058700008212846FBF703F8012210212846FAF7F1
:10588000FEFF012202212846FAF7F9FF2846BDE86B
:10589000704000220421FAF7F2BF0000001001401E
:1058A0000014014070B5084C084D4FF4FA6607E04B
:1058B0002968C863C820FFF761FC2088401C20804D
:1058C0002088B042F4D370BD38000020B40300201B
:1058D00070B50E4688B0054690F83041C0220121CF
:1058E000FDF717FB002823D169462846FDF702F88B
:1058F00000281DD10122FF212846FDF70AFB0028C0
:1059000016D13246B6212846FDF72DF800280FD1D2
:105910000022FF212846FDF7FCFA002808D1224684
:1059200001212846FDF7F5FA002801D185F830411C
:1059300008B070BD10B588B004466946FCF7BEFEDD
:105940006A46214602A0FFF753F908B010BD0000D7
:10595000415049205374617475733A202569203A87
:105960002025730D0A0000004FF47A7110B50B4624
:105970001A4648F2E800FBF70BFF00F015F8BDE807
:105980001040FFF78FBF00004FF47A7110B50B463F
:105990001A460448FBF7FCFE00F006F8BDE810408C
:1059A000FFF780BF08D5FFFF10B5064C4FF42F70EE
:1059B000216848630A20FFF7E1FB216840F2145098
:1059C000886310BDB403002010B5002018700529AD
:1059D00013D2DFE801F00306090C0F00C2F3001137
:1059E00009E0C2F3C00106E0C2F3800103E0C2F3A4
:1059F000801100E0D109197010BD6FF0030010BDD7
:105A000006230A46B021FDF79ABAF0B587B01646CC
:105A1000054661B101290AD0022908D0032922D004
:105A200004293ED06FF0030407B02046F0BD05AA5C
:105A30000021FCF716FF0400F6D19DF81420314632
:105A40002846FDF713FC80B2B0F5807F01D9FF2214
:105A500001E0401EC2B2A5F8D82046212846FDF735
:105A600058FA0446E0E705AA0021FCF7FAFE0446CE
:105A70009DF8142031462846FDF7F8FB80B2FDF76B
:105A800064FCADF808000246A5F8D800002CCBD184
:105A900051212846FDF748FA0400C5D1C5F8E46055
:105AA000C2E703A9FCF7A4FE9DF80F00002798B1F8
:105AB00005AA00212846FCF7D4FE0400B4D102AAAE
:105AC00051212846FCF74FFF0446BDF80800FDF7BA
:105AD0000DFC87B2002CA7D105AA01212846FCF7AE
